{
  "transactions": [
    {
      "hash": "0xf4f879a93bd56062ef16ee5ed0775005e237fa0cedcd2c02119e247588c2f879",
      "transactionType": "CALL",
      "contractName": null,
      "contractAddress": "0x57f1887a8bf19b14fc0df6fd9b2acc9af147ea85",
      "function": "setApprovalForAll(address,bool)",
      "arguments": [
        "0x0635513f179D50A207757E05759CbD106d7dFcE8",
        "true"
      ],
      "transaction": {
        "from": "0x04ea70c37426051ce057fec9ca237f61191b6e46",
        "to": "0x57f1887a8bf19b14fc0df6fd9b2acc9af147ea85",
        "gas": "0xf97a",
        "value": "0x0",
        "input": "0xa22cb4650000000000000000000000000635513f179d50a207757e05759cbd106d7dfce80000000000000000000000000000000000000000000000000000000000000001",
        "nonce": "0x2",
        "chainId": "0xaa36a7"
      },
      "additionalContracts": [],
      "isFixedGasLimit": false
    },
    {
      "hash": "0x6903c6382c297f84996c69ae2662f1647acbfed39030933d408c0034b529a27b",
      "transactionType": "CALL",
      "contractName": null,
      "contractAddress": "0x0635513f179d50a207757e05759cbd106d7dfce8",
      "function": "wrapETH2LD(string,address,uint16,address)",
      "arguments": [
        "teevpn",
        "0x04Ea70c37426051ce057fEC9Ca237F61191b6E46",
        "1",
        "0x8FADE66B79cC9f707aB26799354482EB93a5B7dD"
      ],
      "transaction": {
        "from": "0x04ea70c37426051ce057fec9ca237f61191b6e46",
        "to": "0x0635513f179d50a207757e05759cbd106d7dfce8",
        "gas": "0x2e826",
        "value": "0x0",
        "input": "0x8cf8b41e000000000000000000000000000000000000000000000000000000000000008000000000000000000000000004ea70c37426051ce057fec9ca237f61191b6e4600000000000000000000000000000000000000000000000000000000000000010000000000000000000000008fade66b79cc9f707ab26799354482eb93a5b7dd000000000000000000000000000000000000000000000000000000000000000674656576706e0000000000000000000000000000000000000000000000000000",
        "nonce": "0x3",
        "chainId": "0xaa36a7"
      },
      "additionalContracts": [],
      "isFixedGasLimit": false
    },
    {
      "hash": "0xd266a0cff6f9f08cf46dd511bfae49a958c522545605c19d212a1b4c4594cb6b",
      "transactionType": "CREATE",
      "contractName": "VPNSubdomainRegistrar",
      "contractAddress": "0x1a52c1db110b48733b4f82e694dcddd321242e7e",
      "function": null,
      "arguments": [
        "0x0635513f179D50A207757E05759CbD106d7dFcE8",
        "0x8FADE66B79cC9f707aB26799354482EB93a5B7dD",
        "0xbf8ae32c63cf9ce36e1d41d89186e46d70b678dceead065fd53d6d225a9f788c"
      ],
      "transaction": {
        "from": "0x04ea70c37426051ce057fec9ca237f61191b6e46",
        "gas": "0x1db75d",
        "value": "0x0",
        "input": "0x60e06040523480156200001157600080fd5b5060405162001c7038038062001c708339818101604052810190620000379190620001da565b8273ffffffffffffffffffffffffffffffffffffffff1660808173ffffffffffffffffffffffffffffffffffffffff16815250508173ffffffffffffffffffffffffffffffffffffffff1660a08173ffffffffffffffffffffffffffffffffffffffff16815250508060c08181525050336000806101000a81548173ffffffffffffffffffffffffffffffffffffffff021916908373ffffffffffffffffffffffffffffffffffffffff16021790555050505062000236565b600080fd5b600073ffffffffffffffffffffffffffffffffffffffff82169050919050565b60006200012282620000f5565b9050919050565b6000620001368262000115565b9050919050565b620001488162000129565b81146200015457600080fd5b50565b60008151905062000168816200013d565b92915050565b620001798162000115565b81146200018557600080fd5b50565b60008151905062000199816200016e565b92915050565b6000819050919050565b620001b4816200019f565b8114620001c057600080fd5b50565b600081519050620001d481620001a9565b92915050565b600080600060608486031215620001f657620001f5620000f0565b5b6000620002068682870162000157565b9350506020620002198682870162000188565b92505060406200022c86828701620001c3565b9150509250925092565b60805160a05160c0516119af620002c160003960008181610375015281816104a801528181610572015281816108c901528181610acf0152610cfa01526000818161034c015281816105960152818161062a015281816106c501528181610761015281816107fd01526108ed0152600081816105360152818161088d0152610a8901526119af6000f3fe608060405234801561001057600080fd5b50600436106100cf5760003560e01c80638da5cb5b1161008c578063bc197c8111610066578063bc197c811461024e578063f23a6e611461027e578063f2fde38b146102ae578063f3068a00146102ca576100cf565b80638da5cb5b146101e2578063a8e5fbc014610200578063aeb8ce9b1461021e576100cf565b806301ffc9a7146100d457806304f3bcec1461010457806314bd47e814610122578063246e7d48146101525780635524d548146101825780635a09007b146101b2575b600080fd5b6100ee60048036038101906100e99190610db1565b6102e8565b6040516100fb9190610df9565b60405180910390f35b61010c61034a565b6040516101199190610e93565b60405180910390f35b61013c60048036038101906101379190610f13565b61036e565b6040516101499190610f79565b60405180910390f35b61016c60048036038101906101679190610fc0565b6103b9565b604051610179919061100e565b60405180910390f35b61019c60048036038101906101979190610fc0565b6103ec565b6040516101a99190610df9565b60405180910390f35b6101cc60048036038101906101c79190611029565b61040c565b6040516101d99190610f79565b60405180910390f35b6101ea610a63565b6040516101f7919061100e565b60405180910390f35b610208610a87565b6040516102159190611167565b60405180910390f35b61023860048036038101906102339190610f13565b610aab565b6040516102459190610df9565b60405180910390f35b6102686004803603810190610263919061125a565b610b22565b6040516102759190611345565b60405180910390f35b61029860048036038101906102939190611396565b610b3a565b6040516102a59190611345565b60405180910390f35b6102c860048036038101906102c39190611430565b610b50565b005b6102d2610cf8565b6040516102df9190610f79565b60405180910390f35b60006301ffc9a760e01b827bffffffffffffffffffffffffffffffffffffffffffffffffffffffff191614806103435750634e2312e060e01b827bffffffffffffffffffffffffffffffffffffffffffffffffffffffff1916145b9050919050565b7f000000000000000000000000000000000000000000000000000000000000000081565b60006103b17f000000000000000000000000000000000000000000000000000000000000000084846040516103a492919061149c565b6040518091039020610d1c565b905092915050565b60026020528060005260406000206000915054906101000a900473ffffffffffffffffffffffffffffffffffffffff1681565b60016020528060005260406000206000915054906101000a900460ff1681565b6000808b8b90500361044a576040517fcccf65f500000000000000000000000000000000000000000000000000000000815260040160405180910390fd5b60008989905003610487576040517f4f42be3d00000000000000000000000000000000000000000000000000000000815260040160405180910390fd5b60008b8b60405161049992919061149c565b604051809103902090506104cd7f000000000000000000000000000000000000000000000000000000000000000082610d1c565b91506001600083815260200190815260200160002060009054906101000a900460ff1615610534578b8b6040517f0a7a3d7c00000000000000000000000000000000000000000000000000000000815260040161052b929190611504565b60405180910390fd5b7f000000000000000000000000000000000000000000000000000000000000000073ffffffffffffffffffffffffffffffffffffffff166324c1af447f00000000000000000000000000000000000000000000000000000000000000008e8e307f000000000000000000000000000000000000000000000000000000000000000060008067ffffffffffffffff6040518963ffffffff1660e01b81526004016105e49897969594939291906115a5565b6020604051808303816000875af1158015610603573d6000803e3d6000fd5b505050506040513d601f19601f820116820180604052508101906106279190611632565b507f000000000000000000000000000000000000000000000000000000000000000073ffffffffffffffffffffffffffffffffffffffff166310f13a8c838c8c6040518463ffffffff1660e01b8152600401610685939291906116ab565b600060405180830381600087803b15801561069f57600080fd5b505af11580156106b3573d6000803e3d6000fd5b505050506000888890501115610753577f000000000000000000000000000000000000000000000000000000000000000073ffffffffffffffffffffffffffffffffffffffff166310f13a8c838a8a6040518463ffffffff1660e01b81526004016107209392919061173c565b600060405180830381600087803b15801561073a57600080fd5b505af115801561074e573d6000803e3d6000fd5b505050505b60008686905011156107ef577f000000000000000000000000000000000000000000000000000000000000000073ffffffffffffffffffffffffffffffffffffffff166310f13a8c8388886040518463ffffffff1660e01b81526004016107bc939291906117cd565b600060405180830381600087803b1580156107d657600080fd5b505af11580156107ea573d6000803e3d6000fd5b505050505b600084849050111561088b577f000000000000000000000000000000000000000000000000000000000000000073ffffffffffffffffffffffffffffffffffffffff166310f13a8c8386866040518463ffffffff1660e01b81526004016108589392919061185e565b600060405180830381600087803b15801561087257600080fd5b505af1158015610886573d6000803e3d6000fd5b505050505b7f000000000000000000000000000000000000000000000000000000000000000073ffffffffffffffffffffffffffffffffffffffff166324c1af447f00000000000000000000000000000000000000000000000000000000000000008e8e337f000000000000000000000000000000000000000000000000000000000000000060006201000067ffffffffffffffff6040518963ffffffff1660e01b815260040161093e9897969594939291906115a5565b6020604051808303816000875af115801561095d573d6000803e3d6000fd5b505050506040513d601f19601f820116820180604052508101906109819190611632565b50600180600084815260200190815260200160002060006101000a81548160ff021916908315150217905550336002600084815260200190815260200160002060006101000a81548173ffffffffffffffffffffffffffffffffffffffff021916908373ffffffffffffffffffffffffffffffffffffffff1602179055508b8b604051610a0f9291906118d3565b60405180910390207f23128cdd04b6d4e4d6dce53e9977a3a79b54249ebe556e33eb8fee8662d6ba6a8d8d3386604051610a4c94939291906118ec565b60405180910390a2509a9950505050505050505050565b60008054906101000a900473ffffffffffffffffffffffffffffffffffffffff1681565b7f000000000000000000000000000000000000000000000000000000000000000081565b6000808383604051610abe92919061149c565b604051809103902090506000610af47f000000000000000000000000000000000000000000000000000000000000000083610d1c565b90506001600082815260200190815260200160002060009054906101000a900460ff16159250505092915050565b600063bc197c8160e01b905098975050505050505050565b600063f23a6e6160e01b90509695505050505050565b60008054906101000a900473ffffffffffffffffffffffffffffffffffffffff1673ffffffffffffffffffffffffffffffffffffffff163373ffffffffffffffffffffffffffffffffffffffff1614610bd5576040517f30cd747100000000000000000000000000000000000000000000000000000000815260040160405180910390fd5b600073ffffffffffffffffffffffffffffffffffffffff168173ffffffffffffffffffffffffffffffffffffffff1603610c3b576040517fd92e233d00000000000000000000000000000000000000000000000000000000815260040160405180910390fd5b8073ffffffffffffffffffffffffffffffffffffffff1660008054906101000a900473ffffffffffffffffffffffffffffffffffffffff1673ffffffffffffffffffffffffffffffffffffffff167f8be0079c531659141344cd1fd0a4f28419497f9722a3daafe3b4186f6b6457e060405160405180910390a3806000806101000a81548173ffffffffffffffffffffffffffffffffffffffff021916908373ffffffffffffffffffffffffffffffffffffffff16021790555050565b7f000000000000000000000000000000000000000000000000000000000000000081565b60008282604051602001610d3192919061194d565b60405160208183030381529060405280519060200120905092915050565b600080fd5b600080fd5b60007fffffffff0000000000000000000000000000000000000000000000000000000082169050919050565b610d8e81610d59565b8114610d9957600080fd5b50565b600081359050610dab81610d85565b92915050565b600060208284031215610dc757610dc6610d4f565b5b6000610dd584828501610d9c565b91505092915050565b60008115159050919050565b610df381610dde565b82525050565b6000602082019050610e0e6000830184610dea565b92915050565b600073ffffffffffffffffffffffffffffffffffffffff82169050919050565b6000819050919050565b6000610e59610e54610e4f84610e14565b610e34565b610e14565b9050919050565b6000610e6b82610e3e565b9050919050565b6000610e7d82610e60565b9050919050565b610e8d81610e72565b82525050565b6000602082019050610ea86000830184610e84565b92915050565b600080fd5b600080fd5b600080fd5b60008083601f840112610ed357610ed2610eae565b5b8235905067ffffffffffffffff811115610ef057610eef610eb3565b5b602083019150836001820283011115610f0c57610f0b610eb8565b5b9250929050565b60008060208385031215610f2a57610f29610d4f565b5b600083013567ffffffffffffffff811115610f4857610f47610d54565b5b610f5485828601610ebd565b92509250509250929050565b6000819050919050565b610f7381610f60565b82525050565b6000602082019050610f8e6000830184610f6a565b92915050565b610f9d81610f60565b8114610fa857600080fd5b50565b600081359050610fba81610f94565b92915050565b600060208284031215610fd657610fd5610d4f565b5b6000610fe484828501610fab565b91505092915050565b6000610ff882610e14565b9050919050565b61100881610fed565b82525050565b60006020820190506110236000830184610fff565b92915050565b60008060008060008060008060008060a08b8d03121561104c5761104b610d4f565b5b60008b013567ffffffffffffffff81111561106a57611069610d54565b5b6110768d828e01610ebd565b9a509a505060208b013567ffffffffffffffff81111561109957611098610d54565b5b6110a58d828e01610ebd565b985098505060408b013567ffffffffffffffff8111156110c8576110c7610d54565b5b6110d48d828e01610ebd565b965096505060608b013567ffffffffffffffff8111156110f7576110f6610d54565b5b6111038d828e01610ebd565b945094505060808b013567ffffffffffffffff81111561112657611125610d54565b5b6111328d828e01610ebd565b92509250509295989b9194979a5092959850565b600061115182610e60565b9050919050565b61116181611146565b82525050565b600060208201905061117c6000830184611158565b92915050565b61118b81610fed565b811461119657600080fd5b50565b6000813590506111a881611182565b92915050565b60008083601f8401126111c4576111c3610eae565b5b8235905067ffffffffffffffff8111156111e1576111e0610eb3565b5b6020830191508360208202830111156111fd576111fc610eb8565b5b9250929050565b60008083601f84011261121a57611219610eae565b5b8235905067ffffffffffffffff81111561123757611236610eb3565b5b60208301915083600182028301111561125357611252610eb8565b5b9250929050565b60008060008060008060008060a0898b03121561127a57611279610d4f565b5b60006112888b828c01611199565b98505060206112998b828c01611199565b975050604089013567ffffffffffffffff8111156112ba576112b9610d54565b5b6112c68b828c016111ae565b9650965050606089013567ffffffffffffffff8111156112e9576112e8610d54565b5b6112f58b828c016111ae565b9450945050608089013567ffffffffffffffff81111561131857611317610d54565b5b6113248b828c01611204565b92509250509295985092959890939650565b61133f81610d59565b82525050565b600060208201905061135a6000830184611336565b92915050565b6000819050919050565b61137381611360565b811461137e57600080fd5b50565b6000813590506113908161136a565b92915050565b60008060008060008060a087890312156113b3576113b2610d4f565b5b60006113c189828a01611199565b96505060206113d289828a01611199565b95505060406113e389828a01611381565b94505060606113f489828a01611381565b935050608087013567ffffffffffffffff81111561141557611414610d54565b5b61142189828a01611204565b92509250509295509295509295565b60006020828403121561144657611445610d4f565b5b600061145484828501611199565b91505092915050565b600081905092915050565b82818337600083830152505050565b6000611483838561145d565b9350611490838584611468565b82840190509392505050565b60006114a9828486611477565b91508190509392505050565b600082825260208201905092915050565b6000601f19601f8301169050919050565b60006114e383856114b5565b93506114f0838584611468565b6114f9836114c6565b840190509392505050565b6000602082019050818103600083015261151f8184866114d7565b90509392505050565b6000819050919050565b600067ffffffffffffffff82169050919050565b600061156161155c61155784611528565b610e34565b611532565b9050919050565b61157181611546565b82525050565b600063ffffffff82169050919050565b61159081611577565b82525050565b61159f81611532565b82525050565b600060e0820190506115ba600083018b610f6a565b81810360208301526115cd81898b6114d7565b90506115dc6040830188610fff565b6115e96060830187610fff565b6115f66080830186611568565b61160360a0830185611587565b61161060c0830184611596565b9998505050505050505050565b60008151905061162c81610f94565b92915050565b60006020828403121561164857611647610d4f565b5b60006116568482850161161d565b91505092915050565b7f76706e2e7075626c69636b657900000000000000000000000000000000000000600082015250565b6000611695600d836114b5565b91506116a08261165f565b602082019050919050565b60006060820190506116c06000830186610f6a565b81810360208301526116d181611688565b905081810360408301526116e68184866114d7565b9050949350505050565b7f76706e2e68747470000000000000000000000000000000000000000000000000600082015250565b60006117266008836114b5565b9150611731826116f0565b602082019050919050565b60006060820190506117516000830186610f6a565b818103602083015261176281611719565b905081810360408301526117778184866114d7565b9050949350505050565b7f76706e2e75726c00000000000000000000000000000000000000000000000000600082015250565b60006117b76007836114b5565b91506117c282611781565b602082019050919050565b60006060820190506117e26000830186610f6a565b81810360208301526117f3816117aa565b905081810360408301526118088184866114d7565b9050949350505050565b7f76706e2e6d657461646174610000000000000000000000000000000000000000600082015250565b6000611848600c836114b5565b915061185382611812565b602082019050919050565b60006060820190506118736000830186610f6a565b81810360208301526118848161183b565b905081810360408301526118998184866114d7565b9050949350505050565b600081905092915050565b60006118ba83856118a3565b93506118c7838584611468565b82840190509392505050565b60006118e08284866118ae565b91508190509392505050565b600060608201905081810360008301526119078186886114d7565b90506119166020830185610fff565b6119236040830184610f6a565b95945050505050565b6000819050919050565b61194761194282610f60565b61192c565b82525050565b60006119598285611936565b6020820191506119698284611936565b602082019150819050939250505056fea2646970667358221220d048f24869c54b31ec9aee33f7f618a9bbea68e640e4ab3864d529986ac5a6ef64736f6c634300081100330000000000000000000000000635513f179d50a207757e05759cbd106d7dfce80000000000000000000000008fade66b79cc9f707ab26799354482eb93a5b7ddbf8ae32c63cf9ce36e1d41d89186e46d70b678dceead065fd53d6d225a9f788c",
        "nonce": "0x4",
        "chainId": "0xaa36a7"
      },
      "additionalContracts": [],
      "isFixedGasLimit": false
    },
    {
      "hash": "0x9a0215487969f65dc768ebb522fb91ae338198d3e124210ea59e11d0e3034cc0",
      "transactionType": "CALL",
      "contractName": null,
      "contractAddress": "0x0635513f179d50a207757e05759cbd106d7dfce8",
      "function": "setApprovalForAll(address,bool)",
      "arguments": [
        "0x1A52c1Db110b48733B4f82E694dCddD321242e7e",
        "true"
      ],
      "transaction": {
        "from": "0x04ea70c37426051ce057fec9ca237f61191b6e46",
        "to": "0x0635513f179d50a207757e05759cbd106d7dfce8",
        "gas": "0xf934",
        "value": "0x0",
        "input": "0xa22cb4650000000000000000000000001a52c1db110b48733b4f82e694dcddd321242e7e0000000000000000000000000000000000000000000000000000000000000001",
        "nonce": "0x5",
        "chainId": "0xaa36a7"
      },
      "additionalContracts": [],
      "isFixedGasLimit": false
    }
  ],
  "receipts": [
    {
      "status": "0x1",
      "cumulativeGasUsed": "0x1b21475",
      "logs": [
        {
          "address": "0x57f1887a8bf19b14fc0df6fd9b2acc9af147ea85",
          "topics": [
            "0x17307eab39ab6107e8899845ad3d59bd9653f200f220920489ca2b5937696c31",
            "0x00000000000000000000000004ea70c37426051ce057fec9ca237f61191b6e46",
            "0x0000000000000000000000000635513f179d50a207757e05759cbd106d7dfce8"
          ],
          "data": "0x0000000000000000000000000000000000000000000000000000000000000001",
          "blockHash": "0x49ae23b7a1d529e4d5471195f728cf2f273cba32109c35b3d16b0d0090ca3333",
          "blockNumber": "0xa18f17",
          "blockTimestamp": "0x69d0e840",
          "transactionHash": "0xf4f879a93bd56062ef16ee5ed0775005e237fa0cedcd2c02119e247588c2f879",
          "transactionIndex": "0xb2",
          "logIndex": "0x370",
          "removed": false
        }
      ],
      "logsBloom": "0x00000000000000000000000000000000000000000000000000000000100000000000000000000000000000000000000001000000000000000000000000000000000000000000000000000000000000000000000000000000100000000000000002000000000000000000000000000000000000000000000000000000000000000080000000000000000000000000000000000000000000000000000000000000000000000000000000004000000000000000000000000000000000000000000000000000000000000002000000000000000000000000000020000000000000000000200804000000000000000000000000000000000000000000000000002000",
      "type": "0x2",
      "transactionHash": "0xf4f879a93bd56062ef16ee5ed0775005e237fa0cedcd2c02119e247588c2f879",
      "transactionIndex": "0xb2",
      "blockHash": "0x49ae23b7a1d529e4d5471195f728cf2f273cba32109c35b3d16b0d0090ca3333",
      "blockNumber": "0xa18f17",
      "gasUsed": "0xb49f",
      "effectiveGasPrice": "0xf4257",
      "from": "0x04ea70c37426051ce057fec9ca237f61191b6e46",
      "to": "0x57f1887a8bf19b14fc0df6fd9b2acc9af147ea85",
      "contractAddress": null
    },
    {
      "status": "0x1",
      "cumulativeGasUsed": "0x1b41147",
      "logs": [
        {
          "address": "0x57f1887a8bf19b14fc0df6fd9b2acc9af147ea85",
          "topics": [
            "0xddf252ad1be2c89b69c2b068fc378daa952ba7f163c4a11628f55a4df523b3ef",
            "0x00000000000000000000000004ea70c37426051ce057fec9ca237f61191b6e46",
            "0x0000000000000000000000000635513f179d50a207757e05759cbd106d7dfce8",
            "0xf3d158dc12b674ea92958e10e3e0ac96a69d3b168e98cfd74ff9a5079c1aa8f0"
          ],
          "data": "0x",
          "blockHash": "0x49ae23b7a1d529e4d5471195f728cf2f273cba32109c35b3d16b0d0090ca3333",
          "blockNumber": "0xa18f17",
          "blockTimestamp": "0x69d0e840",
          "transactionHash": "0x6903c6382c297f84996c69ae2662f1647acbfed39030933d408c0034b529a27b",
          "transactionIndex": "0xb3",
          "logIndex": "0x371",
          "removed": false
        },
        {
          "address": "0x00000000000c2e074ec69a0dfb2997ba6c7d2e1e",
          "topics": [
            "0xce0457fe73731f824cc272376169235128c118b49d344817417c6d108d155e82",
            "0x93cdeb708b7545dc668eb9280176169d1c33cfd8ed6f04690a0bcc88a93fc4ae",
            "0xf3d158dc12b674ea92958e10e3e0ac96a69d3b168e98cfd74ff9a5079c1aa8f0"
          ],
          "data": "0x0000000000000000000000000635513f179d50a207757e05759cbd106d7dfce8",
          "blockHash": "0x49ae23b7a1d529e4d5471195f728cf2f273cba32109c35b3d16b0d0090ca3333",
          "blockNumber": "0xa18f17",
          "blockTimestamp": "0x69d0e840",
          "transactionHash": "0x6903c6382c297f84996c69ae2662f1647acbfed39030933d408c0034b529a27b",
          "transactionIndex": "0xb3",
          "logIndex": "0x372",
          "removed": false
        },
        {
          "address": "0x0635513f179d50a207757e05759cbd106d7dfce8",
          "topics": [
            "0xc3d58168c5ae7397731d063d5bbf3d657854427343f4c083240f7aacaa2d0f62",
            "0x00000000000000000000000004ea70c37426051ce057fec9ca237f61191b6e46",
            "0x0000000000000000000000000000000000000000000000000000000000000000",
            "0x00000000000000000000000004ea70c37426051ce057fec9ca237f61191b6e46"
          ],
          "data": "0xbf8ae32c63cf9ce36e1d41d89186e46d70b678dceead065fd53d6d225a9f788c0000000000000000000000000000000000000000000000000000000000000001",
          "blockHash": "0x49ae23b7a1d529e4d5471195f728cf2f273cba32109c35b3d16b0d0090ca3333",
          "blockNumber": "0xa18f17",
          "blockTimestamp": "0x69d0e840",
          "transactionHash": "0x6903c6382c297f84996c69ae2662f1647acbfed39030933d408c0034b529a27b",
          "transactionIndex": "0xb3",
          "logIndex": "0x373",
          "removed": false
        },
        {
          "address": "0x0635513f179d50a207757e05759cbd106d7dfce8",
          "topics": [
            "0x8ce7013e8abebc55c3890a68f5a27c67c3f7efa64e584de5fb22363c606fd340",
            "0xbf8ae32c63cf9ce36e1d41d89186e46d70b678dceead065fd53d6d225a9f788c"
          ],
          "data": "0x000000000000000000000000000000000000000000000000000000000000008000000000000000000000000004ea70c37426051ce057fec9ca237f61191b6e460000000000000000000000000000000000000000000000000000000000030001000000000000000000000000000000000000000000000000000000006c28b45c000000000000000000000000000000000000000000000000000000000000000c0674656576706e03657468000000000000000000000000000000000000000000",
          "blockHash": "0x49ae23b7a1d529e4d5471195f728cf2f273cba32109c35b3d16b0d0090ca3333",
          "blockNumber": "0xa18f17",
          "blockTimestamp": "0x69d0e840",
          "transactionHash": "0x6903c6382c297f84996c69ae2662f1647acbfed39030933d408c0034b529a27b",
          "transactionIndex": "0xb3",
          "logIndex": "0x374",
          "removed": false
        },
        {
          "address": "0x00000000000c2e074ec69a0dfb2997ba6c7d2e1e",
          "topics": [
            "0x335721b01866dc23fbee8b6b2c7b1e14d6f05c28cd35a2c934239f94095602a0",
            "0xbf8ae32c63cf9ce36e1d41d89186e46d70b678dceead065fd53d6d225a9f788c"
          ],
          "data": "0x0000000000000000000000008fade66b79cc9f707ab26799354482eb93a5b7dd",
          "blockHash": "0x49ae23b7a1d529e4d5471195f728cf2f273cba32109c35b3d16b0d0090ca3333",
          "blockNumber": "0xa18f17",
          "blockTimestamp": "0x69d0e840",
          "transactionHash": "0x6903c6382c297f84996c69ae2662f1647acbfed39030933d408c0034b529a27b",
          "transactionIndex": "0xb3",
          "logIndex": "0x375",
          "removed": false
        }
      ],
      "logsBloom": "0x00000000000000400000000000100000000000040000000000000000100004000000000000000000000000000000000001000000000010000000000000822000000000000000000040000008000000000000000000000000300000000000000000000000020000000000000004000800000000200000000000000010000000000080010000000000000000000000000004400200000000000000000000800000000000000000040000804000000000000004000000000000000000040000000000000002000000000002000000004000000000000008000020000000000020000000000804000000000000000100000000000000000001000000080000002000",
      "type": "0x2",
      "transactionHash": "0x6903c6382c297f84996c69ae2662f1647acbfed39030933d408c0034b529a27b",
      "transactionIndex": "0xb3",
      "blockHash": "0x49ae23b7a1d529e4d5471195f728cf2f273cba32109c35b3d16b0d0090ca3333",
      "blockNumber": "0xa18f17",
      "gasUsed": "0x1fcd2",
      "effectiveGasPrice": "0xf4257",
      "from": "0x04ea70c37426051ce057fec9ca237f61191b6e46",
      "to": "0x0635513f179d50a207757e05759cbd106d7dfce8",
      "contractAddress": null
    },
    {
      "status": "0x1",
      "cumulativeGasUsed": "0x1caeee7",
      "logs": [],
      "logsBloom": "0x00000000000000000000000000000000000000000000000000000000000000000000000000000000000000000000000000000000000000000000000000000000000000000000000000000000000000000000000000000000000000000000000000000000000000000000000000000000000000000000000000000000000000000000000000000000000000000000000000000000000000000000000000000000000000000000000000000000000000000000000000000000000000000000000000000000000000000000000000000000000000000000000000000000000000000000000000000000000000000000000000000000000000000000000000000000",
      "type": "0x2",
      "transactionHash": "0xd266a0cff6f9f08cf46dd511bfae49a958c522545605c19d212a1b4c4594cb6b",
      "transactionIndex": "0xb4",
      "blockHash": "0x49ae23b7a1d529e4d5471195f728cf2f273cba32109c35b3d16b0d0090ca3333",
      "blockNumber": "0xa18f17",
      "gasUsed": "0x16dda0",
      "effectiveGasPrice": "0xf4257",
      "from": "0x04ea70c37426051ce057fec9ca237f61191b6e46",
      "to": null,
      "contractAddress": "0x1a52c1db110b48733b4f82e694dcddd321242e7e"
    },
    {
      "status": "0x1",
      "cumulativeGasUsed": "0x1cba353",
      "logs": [
        {
          "address": "0x0635513f179d50a207757e05759cbd106d7dfce8",
          "topics": [
            "0x17307eab39ab6107e8899845ad3d59bd9653f200f220920489ca2b5937696c31",
            "0x00000000000000000000000004ea70c37426051ce057fec9ca237f61191b6e46",
            "0x0000000000000000000000001a52c1db110b48733b4f82e694dcddd321242e7e"
          ],
          "data": "0x0000000000000000000000000000000000000000000000000000000000000001",
          "blockHash": "0x49ae23b7a1d529e4d5471195f728cf2f273cba32109c35b3d16b0d0090ca3333",
          "blockNumber": "0xa18f17",
          "blockTimestamp": "0x69d0e840",
          "transactionHash": "0x9a0215487969f65dc768ebb522fb91ae338198d3e124210ea59e11d0e3034cc0",
          "transactionIndex": "0xb5",
          "logIndex": "0x376",
          "removed": false
        }
      ],
      "logsBloom": "0x00000000000000400000000000000000000000000000000000000000000004000000000000000000000000000000000001000000000000000000000000000000000000000000000000000000000000000000000000000000000000000800000002000000000000000000000004000000000000000000000000000000000000000080000000000000000000000000000000000000000000000000000000000000000000000000000000000000000000000000000080000000000000000000000000000000000000000800000000000000000000000000000000000000000000000000200804000000000000000000000000000000000000000000000000000000",
      "type": "0x2",
      "transactionHash": "0x9a0215487969f65dc768ebb522fb91ae338198d3e124210ea59e11d0e3034cc0",
      "transactionIndex": "0xb5",
      "blockHash": "0x49ae23b7a1d529e4d5471195f728cf2f273cba32109c35b3d16b0d0090ca3333",
      "blockNumber": "0xa18f17",
      "gasUsed": "0xb46c",
      "effectiveGasPrice": "0xf4257",
      "from": "0x04ea70c37426051ce057fec9ca237f61191b6e46",
      "to": "0x0635513f179d50a207757e05759cbd106d7dfce8",
      "contractAddress": null
    }
  ],
  "libraries": [],
  "pending": [],
  "returns": {},
  "timestamp": 1775298641532,
  "chain": 11155111,
  "commit": null
}