{
  "transactions": [
    {
      "hash": "0x22a94c499570113d5d3ac735da4d0eff2f091a8cc2b67d4abf6679c2437234f4",
      "transactionType": "CALL",
      "contractName": null,
      "contractAddress": "0x26684664406f42a4a3b52c5b836736a0a17b4562",
      "function": "register(bytes32,string,address,address,uint16,bytes[])",
      "arguments": [
        "0xbf8ae32c63cf9ce36e1d41d89186e46d70b678dceead065fd53d6d225a9f788c",
        "alice",
        "0x04Ea70c37426051ce057fEC9Ca237F61191b6E46",
        "0x8FADE66B79cC9f707aB26799354482EB93a5B7dD",
        "0",
        "[0x10f13a8cdd4bfd5bebaced70dc217b8c649f351c4fd7e343e93017ad3c27c85dcdb17298000000000000000000000000000000000000000000000000000000000000006000000000000000000000000000000000000000000000000000000000000000a0000000000000000000000000000000000000000000000000000000000000000d76706e2e7075626c69636b65790000000000000000000000000000000000000000000000000000000000000000000000000000000000000000000000000000176261736536342d7769726567756172642d7075626b6579000000000000000000]"
      ],
      "transaction": {
        "from": "0x04ea70c37426051ce057fec9ca237f61191b6e46",
        "to": "0x26684664406f42a4a3b52c5b836736a0a17b4562",
        "gas": "0x50817",
        "value": "0x0",
        "input": "0xee423a65bf8ae32c63cf9ce36e1d41d89186e46d70b678dceead065fd53d6d225a9f788c00000000000000000000000000000000000000000000000000000000000000c000000000000000000000000004ea70c37426051ce057fec9ca237f61191b6e460000000000000000000000008fade66b79cc9f707ab26799354482eb93a5b7dd000000000000000000000000000000000000000000000000000000000000000000000000000000000000000000000000000000000000000000000000000001000000000000000000000000000000000000000000000000000000000000000005616c6963650000000000000000000000000000000000000000000000000000000000000000000000000000000000000000000000000000000000000000000001000000000000000000000000000000000000000000000000000000000000002000000000000000000000000000000000000000000000000000000000000000e410f13a8cdd4bfd5bebaced70dc217b8c649f351c4fd7e343e93017ad3c27c85dcdb17298000000000000000000000000000000000000000000000000000000000000006000000000000000000000000000000000000000000000000000000000000000a0000000000000000000000000000000000000000000000000000000000000000d76706e2e7075626c69636b65790000000000000000000000000000000000000000000000000000000000000000000000000000000000000000000000000000176261736536342d7769726567756172642d7075626b657900000000000000000000000000000000000000000000000000000000000000000000000000",
        "nonce": "0xa",
        "chainId": "0xaa36a7"
      },
      "additionalContracts": [],
      "isFixedGasLimit": false
    },
    {
      "hash": "0x5709059b602c699ef1938b94e736bfabc1bfc973995a5d209a2bfabd1f3afb7c",
      "transactionType": "CALL",
      "contractName": null,
      "contractAddress": "0x8fade66b79cc9f707ab26799354482eb93a5b7dd",
      "function": "setText(bytes32,string,string)",
      "arguments": [
        "0xdd4bfd5bebaced70dc217b8c649f351c4fd7e343e93017ad3c27c85dcdb17298",
        "vpn.http",
        "https://vpn.example.com"
      ],
      "transaction": {
        "from": "0x04ea70c37426051ce057fec9ca237f61191b6e46",
        "to": "0x8fade66b79cc9f707ab26799354482eb93a5b7dd",
        "gas": "0x158a5",
        "value": "0x0",
        "input": "0x10f13a8cdd4bfd5bebaced70dc217b8c649f351c4fd7e343e93017ad3c27c85dcdb17298000000000000000000000000000000000000000000000000000000000000006000000000000000000000000000000000000000000000000000000000000000a0000000000000000000000000000000000000000000000000000000000000000876706e2e68747470000000000000000000000000000000000000000000000000000000000000000000000000000000000000000000000000000000000000001768747470733a2f2f76706e2e6578616d706c652e636f6d000000000000000000",
        "nonce": "0xb",
        "chainId": "0xaa36a7"
      },
      "additionalContracts": [],
      "isFixedGasLimit": false
    },
    {
      "hash": "0xae14d4e23a9e346985f9e2fd176b5e8dd17c1d50d8fb835766770390c61fe701",
      "transactionType": "CALL",
      "contractName": null,
      "contractAddress": "0x8fade66b79cc9f707ab26799354482eb93a5b7dd",
      "function": "setText(bytes32,string,string)",
      "arguments": [
        "0xdd4bfd5bebaced70dc217b8c649f351c4fd7e343e93017ad3c27c85dcdb17298",
        "vpn.url",
        "wg://vpn.example.com"
      ],
      "transaction": {
        "from": "0x04ea70c37426051ce057fec9ca237f61191b6e46",
        "to": "0x8fade66b79cc9f707ab26799354482eb93a5b7dd",
        "gas": "0x15863",
        "value": "0x0",
        "input": "0x10f13a8cdd4bfd5bebaced70dc217b8c649f351c4fd7e343e93017ad3c27c85dcdb17298000000000000000000000000000000000000000000000000000000000000006000000000000000000000000000000000000000000000000000000000000000a0000000000000000000000000000000000000000000000000000000000000000776706e2e75726c00000000000000000000000000000000000000000000000000000000000000000000000000000000000000000000000000000000000000001477673a2f2f76706e2e6578616d706c652e636f6d000000000000000000000000",
        "nonce": "0xc",
        "chainId": "0xaa36a7"
      },
      "additionalContracts": [],
      "isFixedGasLimit": false
    },
    {
      "hash": "0x3b562f6f0e0d99e05f578416cdb263d54bfada04759075fa68016c5193532398",
      "transactionType": "CALL",
      "contractName": null,
      "contractAddress": "0x8fade66b79cc9f707ab26799354482eb93a5b7dd",
      "function": "setText(bytes32,string,string)",
      "arguments": [
        "0xdd4bfd5bebaced70dc217b8c649f351c4fd7e343e93017ad3c27c85dcdb17298",
        "vpn.metadata",
        "region:us-east"
      ],
      "transaction": {
        "from": "0x04ea70c37426051ce057fec9ca237f61191b6e46",
        "to": "0x8fade66b79cc9f707ab26799354482eb93a5b7dd",
        "gas": "0x16c94",
        "value": "0x0",
        "input": "0x10f13a8cdd4bfd5bebaced70dc217b8c649f351c4fd7e343e93017ad3c27c85dcdb17298000000000000000000000000000000000000000000000000000000000000006000000000000000000000000000000000000000000000000000000000000000a0000000000000000000000000000000000000000000000000000000000000000c76706e2e6d657461646174610000000000000000000000000000000000000000000000000000000000000000000000000000000000000000000000000000000e726567696f6e3a75732d65617374000000000000000000000000000000000000",
        "nonce": "0xd",
        "chainId": "0xaa36a7"
      },
      "additionalContracts": [],
      "isFixedGasLimit": false
    }
  ],
  "receipts": [
    {
      "status": "0x1",
      "cumulativeGasUsed": "0x17d2c22",
      "logs": [
        {
          "address": "0x00000000000c2e074ec69a0dfb2997ba6c7d2e1e",
          "topics": [
            "0xce0457fe73731f824cc272376169235128c118b49d344817417c6d108d155e82",
            "0xbf8ae32c63cf9ce36e1d41d89186e46d70b678dceead065fd53d6d225a9f788c",
            "0x9c0257114eb9399a2985f8e75dad7600c5d89fe3824ffa99ec1c3eb8bf3b0501"
          ],
          "data": "0x0000000000000000000000000635513f179d50a207757e05759cbd106d7dfce8",
          "blockHash": "0x7a6985a0d3dc30220b7a6f40bf6079c048fc659dd19ffefce8d3957b1764d330",
          "blockNumber": "0xa18ff8",
          "blockTimestamp": "0x69d0f344",
          "transactionHash": "0x22a94c499570113d5d3ac735da4d0eff2f091a8cc2b67d4abf6679c2437234f4",
          "transactionIndex": "0xa0",
          "logIndex": "0x382",
          "removed": false
        },
        {
          "address": "0x0635513f179d50a207757e05759cbd106d7dfce8",
          "topics": [
            "0xc3d58168c5ae7397731d063d5bbf3d657854427343f4c083240f7aacaa2d0f62",
            "0x00000000000000000000000026684664406f42a4a3b52c5b836736a0a17b4562",
            "0x0000000000000000000000000000000000000000000000000000000000000000",
            "0x00000000000000000000000026684664406f42a4a3b52c5b836736a0a17b4562"
          ],
          "data": "0xdd4bfd5bebaced70dc217b8c649f351c4fd7e343e93017ad3c27c85dcdb172980000000000000000000000000000000000000000000000000000000000000001",
          "blockHash": "0x7a6985a0d3dc30220b7a6f40bf6079c048fc659dd19ffefce8d3957b1764d330",
          "blockNumber": "0xa18ff8",
          "blockTimestamp": "0x69d0f344",
          "transactionHash": "0x22a94c499570113d5d3ac735da4d0eff2f091a8cc2b67d4abf6679c2437234f4",
          "transactionIndex": "0xa0",
          "logIndex": "0x383",
          "removed": false
        },
        {
          "address": "0x0635513f179d50a207757e05759cbd106d7dfce8",
          "topics": [
            "0x8ce7013e8abebc55c3890a68f5a27c67c3f7efa64e584de5fb22363c606fd340",
            "0xdd4bfd5bebaced70dc217b8c649f351c4fd7e343e93017ad3c27c85dcdb17298"
          ],
          "data": "0x000000000000000000000000000000000000000000000000000000000000008000000000000000000000000026684664406f42a4a3b52c5b836736a0a17b45620000000000000000000000000000000000000000000000000000000000000000000000000000000000000000000000000000000000000000000000006bb20d5c000000000000000000000000000000000000000000000000000000000000001205616c6963650674656576706e03657468000000000000000000000000000000",
          "blockHash": "0x7a6985a0d3dc30220b7a6f40bf6079c048fc659dd19ffefce8d3957b1764d330",
          "blockNumber": "0xa18ff8",
          "blockTimestamp": "0x69d0f344",
          "transactionHash": "0x22a94c499570113d5d3ac735da4d0eff2f091a8cc2b67d4abf6679c2437234f4",
          "transactionIndex": "0xa0",
          "logIndex": "0x384",
          "removed": false
        },
        {
          "address": "0x8fade66b79cc9f707ab26799354482eb93a5b7dd",
          "topics": [
            "0x448bc014f1536726cf8d54ff3d6481ed3cbc683c2591ca204274009afa09b1a1",
            "0xdd4bfd5bebaced70dc217b8c649f351c4fd7e343e93017ad3c27c85dcdb17298",
            "0x1cc8bb704973cf8341f8e22f80b79c60debdd9021adefaf5d30a969501bd0d25"
          ],
          "data": "0x00000000000000000000000000000000000000000000000000000000000000400000000000000000000000000000000000000000000000000000000000000080000000000000000000000000000000000000000000000000000000000000000d76706e2e7075626c69636b65790000000000000000000000000000000000000000000000000000000000000000000000000000000000000000000000000000176261736536342d7769726567756172642d7075626b6579000000000000000000",
          "blockHash": "0x7a6985a0d3dc30220b7a6f40bf6079c048fc659dd19ffefce8d3957b1764d330",
          "blockNumber": "0xa18ff8",
          "blockTimestamp": "0x69d0f344",
          "transactionHash": "0x22a94c499570113d5d3ac735da4d0eff2f091a8cc2b67d4abf6679c2437234f4",
          "transactionIndex": "0xa0",
          "logIndex": "0x385",
          "removed": false
        },
        {
          "address": "0x00000000000c2e074ec69a0dfb2997ba6c7d2e1e",
          "topics": [
            "0xce0457fe73731f824cc272376169235128c118b49d344817417c6d108d155e82",
            "0xbf8ae32c63cf9ce36e1d41d89186e46d70b678dceead065fd53d6d225a9f788c",
            "0x9c0257114eb9399a2985f8e75dad7600c5d89fe3824ffa99ec1c3eb8bf3b0501"
          ],
          "data": "0x0000000000000000000000000635513f179d50a207757e05759cbd106d7dfce8",
          "blockHash": "0x7a6985a0d3dc30220b7a6f40bf6079c048fc659dd19ffefce8d3957b1764d330",
          "blockNumber": "0xa18ff8",
          "blockTimestamp": "0x69d0f344",
          "transactionHash": "0x22a94c499570113d5d3ac735da4d0eff2f091a8cc2b67d4abf6679c2437234f4",
          "transactionIndex": "0xa0",
          "logIndex": "0x386",
          "removed": false
        },
        {
          "address": "0x00000000000c2e074ec69a0dfb2997ba6c7d2e1e",
          "topics": [
            "0x335721b01866dc23fbee8b6b2c7b1e14d6f05c28cd35a2c934239f94095602a0",
            "0xdd4bfd5bebaced70dc217b8c649f351c4fd7e343e93017ad3c27c85dcdb17298"
          ],
          "data": "0x0000000000000000000000008fade66b79cc9f707ab26799354482eb93a5b7dd",
          "blockHash": "0x7a6985a0d3dc30220b7a6f40bf6079c048fc659dd19ffefce8d3957b1764d330",
          "blockNumber": "0xa18ff8",
          "blockTimestamp": "0x69d0f344",
          "transactionHash": "0x22a94c499570113d5d3ac735da4d0eff2f091a8cc2b67d4abf6679c2437234f4",
          "transactionIndex": "0xa0",
          "logIndex": "0x387",
          "removed": false
        },
        {
          "address": "0x0635513f179d50a207757e05759cbd106d7dfce8",
          "topics": [
            "0x39873f00c80f4f94b7bd1594aebcf650f003545b74824d57ddf4939e3ff3a34b",
            "0xdd4bfd5bebaced70dc217b8c649f351c4fd7e343e93017ad3c27c85dcdb17298"
          ],
          "data": "0x0000000000000000000000000000000000000000000000000000000000050000",
          "blockHash": "0x7a6985a0d3dc30220b7a6f40bf6079c048fc659dd19ffefce8d3957b1764d330",
          "blockNumber": "0xa18ff8",
          "blockTimestamp": "0x69d0f344",
          "transactionHash": "0x22a94c499570113d5d3ac735da4d0eff2f091a8cc2b67d4abf6679c2437234f4",
          "transactionIndex": "0xa0",
          "logIndex": "0x388",
          "removed": false
        },
        {
          "address": "0x0635513f179d50a207757e05759cbd106d7dfce8",
          "topics": [
            "0xc3d58168c5ae7397731d063d5bbf3d657854427343f4c083240f7aacaa2d0f62",
            "0x00000000000000000000000026684664406f42a4a3b52c5b836736a0a17b4562",
            "0x00000000000000000000000026684664406f42a4a3b52c5b836736a0a17b4562",
            "0x00000000000000000000000004ea70c37426051ce057fec9ca237f61191b6e46"
          ],
          "data": "0xdd4bfd5bebaced70dc217b8c649f351c4fd7e343e93017ad3c27c85dcdb172980000000000000000000000000000000000000000000000000000000000000001",
          "blockHash": "0x7a6985a0d3dc30220b7a6f40bf6079c048fc659dd19ffefce8d3957b1764d330",
          "blockNumber": "0xa18ff8",
          "blockTimestamp": "0x69d0f344",
          "transactionHash": "0x22a94c499570113d5d3ac735da4d0eff2f091a8cc2b67d4abf6679c2437234f4",
          "transactionIndex": "0xa0",
          "logIndex": "0x389",
          "removed": false
        },
        {
          "address": "0x26684664406f42a4a3b52c5b836736a0a17b4562",
          "topics": [
            "0xabce831762b197a806fc33373c356d5ff4d7d0d34ad31f6eb2ace003e27958cd"
          ],
          "data": "0xdd4bfd5bebaced70dc217b8c649f351c4fd7e343e93017ad3c27c85dcdb17298000000000000000000000000000000000000000000000000000000006bb20d5c",
          "blockHash": "0x7a6985a0d3dc30220b7a6f40bf6079c048fc659dd19ffefce8d3957b1764d330",
          "blockNumber": "0xa18ff8",
          "blockTimestamp": "0x69d0f344",
          "transactionHash": "0x22a94c499570113d5d3ac735da4d0eff2f091a8cc2b67d4abf6679c2437234f4",
          "transactionIndex": "0xa0",
          "logIndex": "0x38a",
          "removed": false
        }
      ],
      "logsBloom": "0x00000000000008402000004000000000000000000000000200000000000004000000000000000000100000000000000001000000000010000000000000822000200800000000000040000000000001000000000000000000200000000000000000000000020000000000000004000800020080200000000000000000000000800080050000000000000000000040400000400080000001000000000000800000000000000000040000000000000000000004000000000000800000040000000000000800002800000000000000004000000008011008000000000020000020000000000804000000000000000100000000800000000000000180080000000000",
      "type": "0x2",
      "transactionHash": "0x22a94c499570113d5d3ac735da4d0eff2f091a8cc2b67d4abf6679c2437234f4",
      "transactionIndex": "0xa0",
      "blockHash": "0x7a6985a0d3dc30220b7a6f40bf6079c048fc659dd19ffefce8d3957b1764d330",
      "blockNumber": "0xa18ff8",
      "gasUsed": "0x3a48f",
      "effectiveGasPrice": "0xf425e",
      "from": "0x04ea70c37426051ce057fec9ca237f61191b6e46",
      "to": "0x26684664406f42a4a3b52c5b836736a0a17b4562",
      "contractAddress": null
    },
    {
      "status": "0x1",
      "cumulativeGasUsed": "0x17e25a7",
      "logs": [
        {
          "address": "0x8fade66b79cc9f707ab26799354482eb93a5b7dd",
          "topics": [
            "0x448bc014f1536726cf8d54ff3d6481ed3cbc683c2591ca204274009afa09b1a1",
            "0xdd4bfd5bebaced70dc217b8c649f351c4fd7e343e93017ad3c27c85dcdb17298",
            "0x4a98db32ef59dd168b7c49586d48bb88af87eb8b838c5d88a9888ae354cdffcb"
          ],
          "data": "0x00000000000000000000000000000000000000000000000000000000000000400000000000000000000000000000000000000000000000000000000000000080000000000000000000000000000000000000000000000000000000000000000876706e2e68747470000000000000000000000000000000000000000000000000000000000000000000000000000000000000000000000000000000000000001768747470733a2f2f76706e2e6578616d706c652e636f6d000000000000000000",
          "blockHash": "0x7a6985a0d3dc30220b7a6f40bf6079c048fc659dd19ffefce8d3957b1764d330",
          "blockNumber": "0xa18ff8",
          "blockTimestamp": "0x69d0f344",
          "transactionHash": "0x5709059b602c699ef1938b94e736bfabc1bfc973995a5d209a2bfabd1f3afb7c",
          "transactionIndex": "0xa1",
          "logIndex": "0x38b",
          "removed": false
        }
      ],
      "logsBloom": "0x00000000000000000000000000000000000000000008000000000000000000000000000000000000100000000000000000000000000000000000000000000000000000000000000000000000000001000000000000000000000000000000000000000000000000000000000000000000020000000000000000080000000000000000000000000000000000000000400000000000000000000000000000000000000000000000000000000000000000000000000000000000800000000000000000000000002000000000000000000000000008001000000000000100000000000000000000000000000000000000000000000000000000000080000000000000",
      "type": "0x2",
      "transactionHash": "0x5709059b602c699ef1938b94e736bfabc1bfc973995a5d209a2bfabd1f3afb7c",
      "transactionIndex": "0xa1",
      "blockHash": "0x7a6985a0d3dc30220b7a6f40bf6079c048fc659dd19ffefce8d3957b1764d330",
      "blockNumber": "0xa18ff8",
      "gasUsed": "0xf985",
      "effectiveGasPrice": "0xf425e",
      "from": "0x04ea70c37426051ce057fec9ca237f61191b6e46",
      "to": "0x8fade66b79cc9f707ab26799354482eb93a5b7dd",
      "contractAddress": null
    },
    {
      "status": "0x1",
      "cumulativeGasUsed": "0x17f1efc",
      "logs": [
        {
          "address": "0x8fade66b79cc9f707ab26799354482eb93a5b7dd",
          "topics": [
            "0x448bc014f1536726cf8d54ff3d6481ed3cbc683c2591ca204274009afa09b1a1",
            "0xdd4bfd5bebaced70dc217b8c649f351c4fd7e343e93017ad3c27c85dcdb17298",
            "0xb201f2117d5d62aa04bc4af9cceca0b6c890da5fcf13aceba22f50ff383724f1"
          ],
          "data": "0x00000000000000000000000000000000000000000000000000000000000000400000000000000000000000000000000000000000000000000000000000000080000000000000000000000000000000000000000000000000000000000000000776706e2e75726c00000000000000000000000000000000000000000000000000000000000000000000000000000000000000000000000000000000000000001477673a2f2f76706e2e6578616d706c652e636f6d000000000000000000000000",
          "blockHash": "0x7a6985a0d3dc30220b7a6f40bf6079c048fc659dd19ffefce8d3957b1764d330",
          "blockNumber": "0xa18ff8",
          "blockTimestamp": "0x69d0f344",
          "transactionHash": "0xae14d4e23a9e346985f9e2fd176b5e8dd17c1d50d8fb835766770390c61fe701",
          "transactionIndex": "0xa2",
          "logIndex": "0x38c",
          "removed": false
        }
      ],
      "logsBloom": "0x00000000000000000000000000000000000000000000000000000000000000000000000000000000100000000000000000000000000000000000000000000000000000000000000000000000000401000000000000000000000400000000000000000000000000000000000000000000020000000000000000000000000000000000000000000000000000000000400000000000000000000000000000000000000000000000000000000000000000000000000000000000800000000000000000000000002000000000000000000000000008001000000000000000000000000000000000000001000000000000000000000000000000000080000000000000",
      "type": "0x2",
      "transactionHash": "0xae14d4e23a9e346985f9e2fd176b5e8dd17c1d50d8fb835766770390c61fe701",
      "transactionIndex": "0xa2",
      "blockHash": "0x7a6985a0d3dc30220b7a6f40bf6079c048fc659dd19ffefce8d3957b1764d330",
      "blockNumber": "0xa18ff8",
      "gasUsed": "0xf955",
      "effectiveGasPrice": "0xf425e",
      "from": "0x04ea70c37426051ce057fec9ca237f61191b6e46",
      "to": "0x8fade66b79cc9f707ab26799354482eb93a5b7dd",
      "contractAddress": null
    },
    {
      "status": "0x1",
      "cumulativeGasUsed": "0x1801845",
      "logs": [
        {
          "address": "0x8fade66b79cc9f707ab26799354482eb93a5b7dd",
          "topics": [
            "0x448bc014f1536726cf8d54ff3d6481ed3cbc683c2591ca204274009afa09b1a1",
            "0xdd4bfd5bebaced70dc217b8c649f351c4fd7e343e93017ad3c27c85dcdb17298",
            "0x53b106c0bd79475c37d885cb0c8e17dd6cd206dff8bbf457fc28d16490a0a29f"
          ],
          "data": "0x00000000000000000000000000000000000000000000000000000000000000400000000000000000000000000000000000000000000000000000000000000080000000000000000000000000000000000000000000000000000000000000000c76706e2e6d657461646174610000000000000000000000000000000000000000000000000000000000000000000000000000000000000000000000000000000e726567696f6e3a75732d65617374000000000000000000000000000000000000",
          "blockHash": "0x7a6985a0d3dc30220b7a6f40bf6079c048fc659dd19ffefce8d3957b1764d330",
          "blockNumber": "0xa18ff8",
          "blockTimestamp": "0x69d0f344",
          "transactionHash": "0x3b562f6f0e0d99e05f578416cdb263d54bfada04759075fa68016c5193532398",
          "transactionIndex": "0xa3",
          "logIndex": "0x38d",
          "removed": false
        }
      ],
      "logsBloom": "0x00000000000000000000000000000000000000000000000000000000000000000000000000000000100000000000000000000000000000000000000000000000000040000000000000000000000001000000000000000000000000000000000000000000000000000000000000000000020000000000000000000000000000000020000000000000000000000000400000000000000000000000000000000000000000000000000000000000000000000000000000000000800000000000000000000000002000000000000000000000000008001000000000000000000000000000000000000000000000000000000008000000000000000080000000000000",
      "type": "0x2",
      "transactionHash": "0x3b562f6f0e0d99e05f578416cdb263d54bfada04759075fa68016c5193532398",
      "transactionIndex": "0xa3",
      "blockHash": "0x7a6985a0d3dc30220b7a6f40bf6079c048fc659dd19ffefce8d3957b1764d330",
      "blockNumber": "0xa18ff8",
      "gasUsed": "0xf949",
      "effectiveGasPrice": "0xf425e",
      "from": "0x04ea70c37426051ce057fec9ca237f61191b6e46",
      "to": "0x8fade66b79cc9f707ab26799354482eb93a5b7dd",
      "contractAddress": null
    }
  ],
  "libraries": [],
  "pending": [],
  "returns": {},
  "timestamp": 1775301444665,
  "chain": 11155111,
  "commit": null
}