{
  "transactions": [
    {
      "hash": "0x8d144b0defa5b2e0239834323dcd7b63700e1e37ae68a2822f09e64dd68ddb86",
      "transactionType": "CALL",
      "contractName": null,
      "contractAddress": "0x26684664406f42a4a3b52c5b836736a0a17b4562",
      "function": "register(bytes32,string,address,address,uint16,bytes[])",
      "arguments": [
        "0xbf8ae32c63cf9ce36e1d41d89186e46d70b678dceead065fd53d6d225a9f788c",
        "mkcdwb3q",
        "0x04Ea70c37426051ce057fEC9Ca237F61191b6E46",
        "0x8FADE66B79cC9f707aB26799354482EB93a5B7dD",
        "0",
        "[0x10f13a8c871e36bbdb2b03fa2fb458b1e3a5169dde5f65f5f0d51cba84226d40fa850d33000000000000000000000000000000000000000000000000000000000000006000000000000000000000000000000000000000000000000000000000000000a0000000000000000000000000000000000000000000000000000000000000000d76706e2e7075626c69636b657900000000000000000000000000000000000000000000000000000000000000000000000000000000000000000000000000002c793474624a346a766e544143394d6d5162362b524f786c49355836737769363131734b71466756695877773d0000000000000000000000000000000000000000]"
      ],
      "transaction": {
        "from": "0x04ea70c37426051ce057fec9ca237f61191b6e46",
        "to": "0x26684664406f42a4a3b52c5b836736a0a17b4562",
        "gas": "0x5fbbd",
        "value": "0x0",
        "input": "0xee423a65bf8ae32c63cf9ce36e1d41d89186e46d70b678dceead065fd53d6d225a9f788c00000000000000000000000000000000000000000000000000000000000000c000000000000000000000000004ea70c37426051ce057fec9ca237f61191b6e460000000000000000000000008fade66b79cc9f707ab26799354482eb93a5b7dd0000000000000000000000000000000000000000000000000000000000000000000000000000000000000000000000000000000000000000000000000000010000000000000000000000000000000000000000000000000000000000000000086d6b63647762337100000000000000000000000000000000000000000000000000000000000000000000000000000000000000000000000000000000000000010000000000000000000000000000000000000000000000000000000000000020000000000000000000000000000000000000000000000000000000000000010410f13a8c871e36bbdb2b03fa2fb458b1e3a5169dde5f65f5f0d51cba84226d40fa850d33000000000000000000000000000000000000000000000000000000000000006000000000000000000000000000000000000000000000000000000000000000a0000000000000000000000000000000000000000000000000000000000000000d76706e2e7075626c69636b657900000000000000000000000000000000000000000000000000000000000000000000000000000000000000000000000000002c793474624a346a766e544143394d6d5162362b524f786c49355836737769363131734b71466756695877773d000000000000000000000000000000000000000000000000000000000000000000000000000000000000000000000000",
        "nonce": "0xe",
        "chainId": "0xaa36a7"
      },
      "additionalContracts": [],
      "isFixedGasLimit": false
    },
    {
      "hash": "0x7fc423210bf7ee0ca381099738fc036f6491216b2f9bc4d9c3c66b41f9a58327",
      "transactionType": "CALL",
      "contractName": null,
      "contractAddress": "0x8fade66b79cc9f707ab26799354482eb93a5b7dd",
      "function": "setText(bytes32,string,string)",
      "arguments": [
        "0x871e36bbdb2b03fa2fb458b1e3a5169dde5f65f5f0d51cba84226d40fa850d33",
        "vpn.endpoint",
        "37.27.29.160:51820"
      ],
      "transaction": {
        "from": "0x04ea70c37426051ce057fec9ca237f61191b6e46",
        "to": "0x8fade66b79cc9f707ab26799354482eb93a5b7dd",
        "gas": "0x16cda",
        "value": "0x0",
        "input": "0x10f13a8c871e36bbdb2b03fa2fb458b1e3a5169dde5f65f5f0d51cba84226d40fa850d33000000000000000000000000000000000000000000000000000000000000006000000000000000000000000000000000000000000000000000000000000000a0000000000000000000000000000000000000000000000000000000000000000c76706e2e656e64706f696e740000000000000000000000000000000000000000000000000000000000000000000000000000000000000000000000000000001233372e32372e32392e3136303a35313832300000000000000000000000000000",
        "nonce": "0xf",
        "chainId": "0xaa36a7"
      },
      "additionalContracts": [],
      "isFixedGasLimit": false
    },
    {
      "hash": "0x5103cb8ffa1746a31852961819cacee7d28e720b1b3c7bc8a94154a1fe4a52f2",
      "transactionType": "CALL",
      "contractName": null,
      "contractAddress": "0x8fade66b79cc9f707ab26799354482eb93a5b7dd",
      "function": "setText(bytes32,string,string)",
      "arguments": [
        "0x871e36bbdb2b03fa2fb458b1e3a5169dde5f65f5f0d51cba84226d40fa850d33",
        "vpn.http",
        "https://mkcdwb3q.teevpn.eth"
      ],
      "transaction": {
        "from": "0x04ea70c37426051ce057fec9ca237f61191b6e46",
        "to": "0x8fade66b79cc9f707ab26799354482eb93a5b7dd",
        "gas": "0x158e8",
        "value": "0x0",
        "input": "0x10f13a8c871e36bbdb2b03fa2fb458b1e3a5169dde5f65f5f0d51cba84226d40fa850d33000000000000000000000000000000000000000000000000000000000000006000000000000000000000000000000000000000000000000000000000000000a0000000000000000000000000000000000000000000000000000000000000000876706e2e68747470000000000000000000000000000000000000000000000000000000000000000000000000000000000000000000000000000000000000001b68747470733a2f2f6d6b6364776233712e74656576706e2e6574680000000000",
        "nonce": "0x10",
        "chainId": "0xaa36a7"
      },
      "additionalContracts": [],
      "isFixedGasLimit": false
    },
    {
      "hash": "0x6342a5f13bd07d253a18fd5398f3d95c9b5db0289701e4b48fc9a20ed4433aa1",
      "transactionType": "CALL",
      "contractName": null,
      "contractAddress": "0x8fade66b79cc9f707ab26799354482eb93a5b7dd",
      "function": "setText(bytes32,string,string)",
      "arguments": [
        "0x871e36bbdb2b03fa2fb458b1e3a5169dde5f65f5f0d51cba84226d40fa850d33",
        "vpn.metadata",
        "{region:us-east}"
      ],
      "transaction": {
        "from": "0x04ea70c37426051ce057fec9ca237f61191b6e46",
        "to": "0x8fade66b79cc9f707ab26799354482eb93a5b7dd",
        "gas": "0x16cb7",
        "value": "0x0",
        "input": "0x10f13a8c871e36bbdb2b03fa2fb458b1e3a5169dde5f65f5f0d51cba84226d40fa850d33000000000000000000000000000000000000000000000000000000000000006000000000000000000000000000000000000000000000000000000000000000a0000000000000000000000000000000000000000000000000000000000000000c76706e2e6d65746164617461000000000000000000000000000000000000000000000000000000000000000000000000000000000000000000000000000000107b726567696f6e3a75732d656173747d00000000000000000000000000000000",
        "nonce": "0x11",
        "chainId": "0xaa36a7"
      },
      "additionalContracts": [],
      "isFixedGasLimit": false
    }
  ],
  "receipts": [
    {
      "status": "0x1",
      "cumulativeGasUsed": "0x10f7b60",
      "logs": [
        {
          "address": "0x00000000000c2e074ec69a0dfb2997ba6c7d2e1e",
          "topics": [
            "0xce0457fe73731f824cc272376169235128c118b49d344817417c6d108d155e82",
            "0xbf8ae32c63cf9ce36e1d41d89186e46d70b678dceead065fd53d6d225a9f788c",
            "0x86aeb1a8fbe8bca488b53b821f5a5e24ec62c4508c6efd2642ae28bf58d5b7af"
          ],
          "data": "0x0000000000000000000000000635513f179d50a207757e05759cbd106d7dfce8",
          "blockHash": "0x52b06f25026e9ec2c3fde6a697a0dc7fb5005720aec2d2951428b7198c525203",
          "blockNumber": "0xa190a3",
          "blockTimestamp": "0x69d0fb60",
          "transactionHash": "0x8d144b0defa5b2e0239834323dcd7b63700e1e37ae68a2822f09e64dd68ddb86",
          "transactionIndex": "0x5d",
          "logIndex": "0x27a",
          "removed": false
        },
        {
          "address": "0x0635513f179d50a207757e05759cbd106d7dfce8",
          "topics": [
            "0xc3d58168c5ae7397731d063d5bbf3d657854427343f4c083240f7aacaa2d0f62",
            "0x00000000000000000000000026684664406f42a4a3b52c5b836736a0a17b4562",
            "0x0000000000000000000000000000000000000000000000000000000000000000",
            "0x00000000000000000000000026684664406f42a4a3b52c5b836736a0a17b4562"
          ],
          "data": "0x871e36bbdb2b03fa2fb458b1e3a5169dde5f65f5f0d51cba84226d40fa850d330000000000000000000000000000000000000000000000000000000000000001",
          "blockHash": "0x52b06f25026e9ec2c3fde6a697a0dc7fb5005720aec2d2951428b7198c525203",
          "blockNumber": "0xa190a3",
          "blockTimestamp": "0x69d0fb60",
          "transactionHash": "0x8d144b0defa5b2e0239834323dcd7b63700e1e37ae68a2822f09e64dd68ddb86",
          "transactionIndex": "0x5d",
          "logIndex": "0x27b",
          "removed": false
        },
        {
          "address": "0x0635513f179d50a207757e05759cbd106d7dfce8",
          "topics": [
            "0x8ce7013e8abebc55c3890a68f5a27c67c3f7efa64e584de5fb22363c606fd340",
            "0x871e36bbdb2b03fa2fb458b1e3a5169dde5f65f5f0d51cba84226d40fa850d33"
          ],
          "data": "0x000000000000000000000000000000000000000000000000000000000000008000000000000000000000000026684664406f42a4a3b52c5b836736a0a17b45620000000000000000000000000000000000000000000000000000000000000000000000000000000000000000000000000000000000000000000000006bb20d5c0000000000000000000000000000000000000000000000000000000000000015086d6b6364776233710674656576706e03657468000000000000000000000000",
          "blockHash": "0x52b06f25026e9ec2c3fde6a697a0dc7fb5005720aec2d2951428b7198c525203",
          "blockNumber": "0xa190a3",
          "blockTimestamp": "0x69d0fb60",
          "transactionHash": "0x8d144b0defa5b2e0239834323dcd7b63700e1e37ae68a2822f09e64dd68ddb86",
          "transactionIndex": "0x5d",
          "logIndex": "0x27c",
          "removed": false
        },
        {
          "address": "0x8fade66b79cc9f707ab26799354482eb93a5b7dd",
          "topics": [
            "0x448bc014f1536726cf8d54ff3d6481ed3cbc683c2591ca204274009afa09b1a1",
            "0x871e36bbdb2b03fa2fb458b1e3a5169dde5f65f5f0d51cba84226d40fa850d33",
            "0x1cc8bb704973cf8341f8e22f80b79c60debdd9021adefaf5d30a969501bd0d25"
          ],
          "data": "0x00000000000000000000000000000000000000000000000000000000000000400000000000000000000000000000000000000000000000000000000000000080000000000000000000000000000000000000000000000000000000000000000d76706e2e7075626c69636b657900000000000000000000000000000000000000000000000000000000000000000000000000000000000000000000000000002c793474624a346a766e544143394d6d5162362b524f786c49355836737769363131734b71466756695877773d0000000000000000000000000000000000000000",
          "blockHash": "0x52b06f25026e9ec2c3fde6a697a0dc7fb5005720aec2d2951428b7198c525203",
          "blockNumber": "0xa190a3",
          "blockTimestamp": "0x69d0fb60",
          "transactionHash": "0x8d144b0defa5b2e0239834323dcd7b63700e1e37ae68a2822f09e64dd68ddb86",
          "transactionIndex": "0x5d",
          "logIndex": "0x27d",
          "removed": false
        },
        {
          "address": "0x00000000000c2e074ec69a0dfb2997ba6c7d2e1e",
          "topics": [
            "0xce0457fe73731f824cc272376169235128c118b49d344817417c6d108d155e82",
            "0xbf8ae32c63cf9ce36e1d41d89186e46d70b678dceead065fd53d6d225a9f788c",
            "0x86aeb1a8fbe8bca488b53b821f5a5e24ec62c4508c6efd2642ae28bf58d5b7af"
          ],
          "data": "0x0000000000000000000000000635513f179d50a207757e05759cbd106d7dfce8",
          "blockHash": "0x52b06f25026e9ec2c3fde6a697a0dc7fb5005720aec2d2951428b7198c525203",
          "blockNumber": "0xa190a3",
          "blockTimestamp": "0x69d0fb60",
          "transactionHash": "0x8d144b0defa5b2e0239834323dcd7b63700e1e37ae68a2822f09e64dd68ddb86",
          "transactionIndex": "0x5d",
          "logIndex": "0x27e",
          "removed": false
        },
        {
          "address": "0x00000000000c2e074ec69a0dfb2997ba6c7d2e1e",
          "topics": [
            "0x335721b01866dc23fbee8b6b2c7b1e14d6f05c28cd35a2c934239f94095602a0",
            "0x871e36bbdb2b03fa2fb458b1e3a5169dde5f65f5f0d51cba84226d40fa850d33"
          ],
          "data": "0x0000000000000000000000008fade66b79cc9f707ab26799354482eb93a5b7dd",
          "blockHash": "0x52b06f25026e9ec2c3fde6a697a0dc7fb5005720aec2d2951428b7198c525203",
          "blockNumber": "0xa190a3",
          "blockTimestamp": "0x69d0fb60",
          "transactionHash": "0x8d144b0defa5b2e0239834323dcd7b63700e1e37ae68a2822f09e64dd68ddb86",
          "transactionIndex": "0x5d",
          "logIndex": "0x27f",
          "removed": false
        },
        {
          "address": "0x0635513f179d50a207757e05759cbd106d7dfce8",
          "topics": [
            "0x39873f00c80f4f94b7bd1594aebcf650f003545b74824d57ddf4939e3ff3a34b",
            "0x871e36bbdb2b03fa2fb458b1e3a5169dde5f65f5f0d51cba84226d40fa850d33"
          ],
          "data": "0x0000000000000000000000000000000000000000000000000000000000050000",
          "blockHash": "0x52b06f25026e9ec2c3fde6a697a0dc7fb5005720aec2d2951428b7198c525203",
          "blockNumber": "0xa190a3",
          "blockTimestamp": "0x69d0fb60",
          "transactionHash": "0x8d144b0defa5b2e0239834323dcd7b63700e1e37ae68a2822f09e64dd68ddb86",
          "transactionIndex": "0x5d",
          "logIndex": "0x280",
          "removed": false
        },
        {
          "address": "0x0635513f179d50a207757e05759cbd106d7dfce8",
          "topics": [
            "0xc3d58168c5ae7397731d063d5bbf3d657854427343f4c083240f7aacaa2d0f62",
            "0x00000000000000000000000026684664406f42a4a3b52c5b836736a0a17b4562",
            "0x00000000000000000000000026684664406f42a4a3b52c5b836736a0a17b4562",
            "0x00000000000000000000000004ea70c37426051ce057fec9ca237f61191b6e46"
          ],
          "data": "0x871e36bbdb2b03fa2fb458b1e3a5169dde5f65f5f0d51cba84226d40fa850d330000000000000000000000000000000000000000000000000000000000000001",
          "blockHash": "0x52b06f25026e9ec2c3fde6a697a0dc7fb5005720aec2d2951428b7198c525203",
          "blockNumber": "0xa190a3",
          "blockTimestamp": "0x69d0fb60",
          "transactionHash": "0x8d144b0defa5b2e0239834323dcd7b63700e1e37ae68a2822f09e64dd68ddb86",
          "transactionIndex": "0x5d",
          "logIndex": "0x281",
          "removed": false
        },
        {
          "address": "0x26684664406f42a4a3b52c5b836736a0a17b4562",
          "topics": [
            "0xabce831762b197a806fc33373c356d5ff4d7d0d34ad31f6eb2ace003e27958cd"
          ],
          "data": "0x871e36bbdb2b03fa2fb458b1e3a5169dde5f65f5f0d51cba84226d40fa850d33000000000000000000000000000000000000000000000000000000006bb20d5c",
          "blockHash": "0x52b06f25026e9ec2c3fde6a697a0dc7fb5005720aec2d2951428b7198c525203",
          "blockNumber": "0xa190a3",
          "blockTimestamp": "0x69d0fb60",
          "transactionHash": "0x8d144b0defa5b2e0239834323dcd7b63700e1e37ae68a2822f09e64dd68ddb86",
          "transactionIndex": "0x5d",
          "logIndex": "0x282",
          "removed": false
        }
      ],
      "logsBloom": "0x00000000000008402000004000000000000000000000000200000000000004000000400000000000100000000000000001000000000010000000000000822000200800000000000040000000000000000000000000000000200000000000000000000000020000000000000004000800000080200000000000000000000008800080050000000000000000000000000000400080400000000000000000800000000000000040040000000000000000000004000000000000800000040000000000000800002000000100000000004000000008011008000000000020000020000000000804000000000000000100000002800000000000000180080000000000",
      "type": "0x2",
      "transactionHash": "0x8d144b0defa5b2e0239834323dcd7b63700e1e37ae68a2822f09e64dd68ddb86",
      "transactionIndex": "0x5d",
      "blockHash": "0x52b06f25026e9ec2c3fde6a697a0dc7fb5005720aec2d2951428b7198c525203",
      "blockNumber": "0xa190a3",
      "gasUsed": "0x454f4",
      "effectiveGasPrice": "0xf4255",
      "from": "0x04ea70c37426051ce057fec9ca237f61191b6e46",
      "to": "0x26684664406f42a4a3b52c5b836736a0a17b4562",
      "contractAddress": null
    },
    {
      "status": "0x1",
      "cumulativeGasUsed": "0x119f5e5",
      "logs": [
        {
          "address": "0x8fade66b79cc9f707ab26799354482eb93a5b7dd",
          "topics": [
            "0x448bc014f1536726cf8d54ff3d6481ed3cbc683c2591ca204274009afa09b1a1",
            "0x871e36bbdb2b03fa2fb458b1e3a5169dde5f65f5f0d51cba84226d40fa850d33",
            "0xd1b5e3bc88e6de3ebf4a8dacf741d06e3a8d08a12114230b82359c420f2dd2b9"
          ],
          "data": "0x00000000000000000000000000000000000000000000000000000000000000400000000000000000000000000000000000000000000000000000000000000080000000000000000000000000000000000000000000000000000000000000000c76706e2e656e64706f696e740000000000000000000000000000000000000000000000000000000000000000000000000000000000000000000000000000001233372e32372e32392e3136303a35313832300000000000000000000000000000",
          "blockHash": "0x52b06f25026e9ec2c3fde6a697a0dc7fb5005720aec2d2951428b7198c525203",
          "blockNumber": "0xa190a3",
          "blockTimestamp": "0x69d0fb60",
          "transactionHash": "0x7fc423210bf7ee0ca381099738fc036f6491216b2f9bc4d9c3c66b41f9a58327",
          "transactionIndex": "0x5f",
          "logIndex": "0x288",
          "removed": false
        }
      ],
      "logsBloom": "0x00000000000000000000000000000000000000000000000000000000000000000000000000000000100000000000000000000000000000000000000000000000000000000000000000020000000000000000000000000000000000000000000000000000000000000000000000000000000000000000000000000000000008000000000000000000000000000000000000000000400000000000000000000000000000000040000000000000000000000000000000000000800000000000000000000000002000000000000000000000000008201000000000000002000000000000000000000000000000000000000000000000000000000080000000000000",
      "type": "0x2",
      "transactionHash": "0x7fc423210bf7ee0ca381099738fc036f6491216b2f9bc4d9c3c66b41f9a58327",
      "transactionIndex": "0x5f",
      "blockHash": "0x52b06f25026e9ec2c3fde6a697a0dc7fb5005720aec2d2951428b7198c525203",
      "blockNumber": "0xa190a3",
      "gasUsed": "0xf979",
      "effectiveGasPrice": "0xf4255",
      "from": "0x04ea70c37426051ce057fec9ca237f61191b6e46",
      "to": "0x8fade66b79cc9f707ab26799354482eb93a5b7dd",
      "contractAddress": null
    },
    {
      "status": "0x1",
      "cumulativeGasUsed": "0x11aef9a",
      "logs": [
        {
          "address": "0x8fade66b79cc9f707ab26799354482eb93a5b7dd",
          "topics": [
            "0x448bc014f1536726cf8d54ff3d6481ed3cbc683c2591ca204274009afa09b1a1",
            "0x871e36bbdb2b03fa2fb458b1e3a5169dde5f65f5f0d51cba84226d40fa850d33",
            "0x4a98db32ef59dd168b7c49586d48bb88af87eb8b838c5d88a9888ae354cdffcb"
          ],
          "data": "0x00000000000000000000000000000000000000000000000000000000000000400000000000000000000000000000000000000000000000000000000000000080000000000000000000000000000000000000000000000000000000000000000876706e2e68747470000000000000000000000000000000000000000000000000000000000000000000000000000000000000000000000000000000000000001b68747470733a2f2f6d6b6364776233712e74656576706e2e6574680000000000",
          "blockHash": "0x52b06f25026e9ec2c3fde6a697a0dc7fb5005720aec2d2951428b7198c525203",
          "blockNumber": "0xa190a3",
          "blockTimestamp": "0x69d0fb60",
          "transactionHash": "0x5103cb8ffa1746a31852961819cacee7d28e720b1b3c7bc8a94154a1fe4a52f2",
          "transactionIndex": "0x60",
          "logIndex": "0x289",
          "removed": false
        }
      ],
      "logsBloom": "0x00000000000000000000000000000000000000000008000000000000000000000000000000000000100000000000000000000000000000000000000000000000000000000000000000000000000000000000000000000000000000000000000000000000000000000000000000000000000000000000000000080000000008000000000000000000000000000000000000000000400000000000000000000000000000000040000000000000000000000000000000000000800000000000000000000000002000000000000000000000000008001000000000000100000000000000000000000000000000000000000000000000000000000080000000000000",
      "type": "0x2",
      "transactionHash": "0x5103cb8ffa1746a31852961819cacee7d28e720b1b3c7bc8a94154a1fe4a52f2",
      "transactionIndex": "0x60",
      "blockHash": "0x52b06f25026e9ec2c3fde6a697a0dc7fb5005720aec2d2951428b7198c525203",
      "blockNumber": "0xa190a3",
      "gasUsed": "0xf9b5",
      "effectiveGasPrice": "0xf4255",
      "from": "0x04ea70c37426051ce057fec9ca237f61191b6e46",
      "to": "0x8fade66b79cc9f707ab26799354482eb93a5b7dd",
      "contractAddress": null
    },
    {
      "status": "0x1",
      "cumulativeGasUsed": "0x11be8fb",
      "logs": [
        {
          "address": "0x8fade66b79cc9f707ab26799354482eb93a5b7dd",
          "topics": [
            "0x448bc014f1536726cf8d54ff3d6481ed3cbc683c2591ca204274009afa09b1a1",
            "0x871e36bbdb2b03fa2fb458b1e3a5169dde5f65f5f0d51cba84226d40fa850d33",
            "0x53b106c0bd79475c37d885cb0c8e17dd6cd206dff8bbf457fc28d16490a0a29f"
          ],
          "data": "0x00000000000000000000000000000000000000000000000000000000000000400000000000000000000000000000000000000000000000000000000000000080000000000000000000000000000000000000000000000000000000000000000c76706e2e6d65746164617461000000000000000000000000000000000000000000000000000000000000000000000000000000000000000000000000000000107b726567696f6e3a75732d656173747d00000000000000000000000000000000",
          "blockHash": "0x52b06f25026e9ec2c3fde6a697a0dc7fb5005720aec2d2951428b7198c525203",
          "blockNumber": "0xa190a3",
          "blockTimestamp": "0x69d0fb60",
          "transactionHash": "0x6342a5f13bd07d253a18fd5398f3d95c9b5db0289701e4b48fc9a20ed4433aa1",
          "transactionIndex": "0x61",
          "logIndex": "0x28a",
          "removed": false
        }
      ],
      "logsBloom": "0x00000000000000000000000000000000000000000000000000000000000000000000000000000000100000000000000000000000000000000000000000000000000040000000000000000000000000000000000000000000000000000000000000000000000000000000000000000000000000000000000000000000000008000020000000000000000000000000000000000000400000000000000000000000000000000040000000000000000000000000000000000000800000000000000000000000002000000000000000000000000008001000000000000000000000000000000000000000000000000000000008000000000000000080000000000000",
      "type": "0x2",
      "transactionHash": "0x6342a5f13bd07d253a18fd5398f3d95c9b5db0289701e4b48fc9a20ed4433aa1",
      "transactionIndex": "0x61",
      "blockHash": "0x52b06f25026e9ec2c3fde6a697a0dc7fb5005720aec2d2951428b7198c525203",
      "blockNumber": "0xa190a3",
      "gasUsed": "0xf961",
      "effectiveGasPrice": "0xf4255",
      "from": "0x04ea70c37426051ce057fec9ca237f61191b6e46",
      "to": "0x8fade66b79cc9f707ab26799354482eb93a5b7dd",
      "contractAddress": null
    }
  ],
  "libraries": [],
  "pending": [],
  "returns": {},
  "timestamp": 1775303521519,
  "chain": 11155111,
  "commit": null
}